:0200000480007A
:10000000130EF0FF970E0000938E0E1C130F0000CE
:10001000170300001303431B930300009700000025
:100020009380800573905030B7B0000073903030EB
:10003000B71000009380D0F07390003AB700002012
:100040007390003B9300F0FF7390103B970000000B
:100050009380800473901034B72000009380008058
:1000600073B00030B71000009380008073A00030A0
:1000700073002030F32020346396E01573901E3413
:1000800073002030F3202014639E70127310131439
:1000900073002010130E0000970E0000938ECE12F6
:1000A0001703000013034312970000009380C0FD64
:1000B00073905010B7201A1B93808091739000901A
:1000C000B7201E1F9380C0D173901090B7A09A9B49
:1000D0009380809973902090B7A09E9F9380C0D901
:1000E00073903090B700002273900091B700002207
:1000F0009380800073901091B700002293800001DC
:1001000073902091B700002293808001739030910A
:10011000B70000229380000273904091B700002244
:100120009380800273905091B70000229380000367
:1001300073906091B7000022938080037390709158
:10014000B70000229380000473908091B7000022D2
:100150009380800473909091B700002293800005F3
:1001600073900091B7000022938080057390A09156
:10017000B7000022938000067390B091B700002270
:10018000938080067390C091B7000022938000078F
:100190007390D091B7000022938080077390E09114
:1001A000970E0000938E4E01130F20007300203035
:1001B0006F0040016F00C0016F0080016F004001BF
:1001C0006F000001370110F0130141F22320C1013B
:0C01D000370110F0130101F223200100A0
:040000058000000077
:00000001FF
