:0200000480007A
:10000000130EF0FF170F0000130FCF0C970E000018
:10001000938E4E0C970000009380800573905030B3
:10002000B7B0000073903030B71000009380D0F06C
:100030007390003AB70000207390003B9300F0FFEC
:100040007390103B970000009380800373901034EE
:10005000B72000009380008073B00030B71000001C
:100060009380008073A000307300203073101F3421
:100070007300203073901E1473002010130E0000C4
:10008000170F0000130F0F05970E0000938E8E04BC
:1000900097000000938040FE73905010970E000070
:1000A000938E4E0393000000739000909300000025
:1000B000739000919300000073901091170F00004F
:1000C000130F0F01730020306F0080006F000001DC
:1000D000370110F0130141F22320C101370110F064
:0800E000130101F223200100CD
:040000058000000077
:00000001FF
