:0200000480007A
:10000000130EF0FF970E0000938ECE38130F0000F2
:100010009703000093830338930200001703000046
:10002000130383057310533037B30000731023306C
:10003000371300001303D3F07310033A3703002083
:100040007310033B370300307310133B170300009A
:100050001303830473101334372300001303038046
:100060007330033037130000130303807320033011
:100070007300203073232034631CE33173901E34EB
:1000800073002030732320146314533073901314BF
:1000900073002010130E0000970E0000938E8E2F19
:1000A000970300009383032F170300001303C3FD7E
:1000B00073105310371312131303031173100390AB
:1000C00037131617130343517310139037939293FA
:1000D000130303197310239037939697130343590F
:1000E00073103390370300227310039137030022FB
:1000F000130313007310139137030022130323001B
:1001000073102391370300221303330073103391CC
:100110003703002213034300731043913703002277
:10012000130353007310539137030022130363002A
:1001300073106391370300221303730073107391DC
:1001400037030022130383007310839137030022C7
:100150001303930073109391370300221303A3003A
:100160007310A391370300221303B3007310B391EC
:10017000370300221303C3007310C3913703002217
:100180001303D3007310D391370300221303E3004A
:100190007310E391370300221303F3007310F391FC
:1001A000970E0000938E4E01130F20007300203035
:1001B0006F00001E130E1000970E0000938E8E1D10
:1001C000970300009383031D3703008883230300F4
:1001D00083234300832383008323C30083230301FA
:1001E00083234301832383018323C30123207300DB
:1001F0002322730023247300232673002328730013
:10020000232A7300232C7300232E7300970E000003
:10021000938ECE01130F7000370300801303C3FFCA
:10022000232073006F00C016130E2000970E0000ED
:10023000938E4E16970300009383C31537030088EF
:100240002324730223267302232C7302232E7302AA
:1002500097030000938343019302F0002328730265
:100260006F000013130E3000970E0000938E8E1255
:10027000970300009383031237030088832343020C
:100280008323C302832343038323C3039703000011
:10029000938343019302D000832303026F00400F36
:1002A000130E4000970E0000938ECE0E97030000B1
:1002B0009383C3019302C000370300881303030232
:1002C000670003006F00C00C130E5000970E000073
:1002D000938E4E0C970300009383C30B170300000B
:1002E00013038301731013141303000873300310F6
:1002F00073002010130E6000970E0000938E8E097D
:1003000097030000938303093703008823247300B5
:1003100023267300232C7300232E73009703000001
:10032000938343019302F000232873006F0040067B
:10033000130E7000970E0000938ECE0597030000F9
:100340009383430537030088832343008323C3003B
:10035000832343018323C301970300009383430155
:100360009302D000832303006F008002130E8000ED
:10037000970E0000938E0E029703000093834302B2
:100380009302C00037030088670003006F0040003D
:10039000B70310F0938343F223A0C301B70310F017
:0803A000938303F223A0030084
:040000058000000077
:00000001FF
