:0200000480007A
:100000009700000093800001739050306F00C00093
:1000100073101F3473002030130E0000170F000000
:10002000130F8F22B7121213938202117390023AA8
:10003000B7121617938242517390123AB792929365
:10004000938202197390223AB792969793824259FB
:100050007390323AB70200227390023BB70200223B
:10006000938212007390123BB70200229382220007
:100070007390223BB7020022938232007390323B8E
:10008000B7020022938242007390423BB7020022E3
:10009000938252007390523BB70200229382620017
:1000A0007390623BB7020022938272007390723B9E
:1000B000B7020022938282007390823BB702002233
:1000C000938292007390923BB70200229382A20027
:1000D0007390A23BB70200229382B2007390B23BAE
:1000E000B70200229382C2007390C23BB702002283
:1000F0009382D2007390D23BB70200229382E20037
:100100007390E23BB70200229382F2007390F23BBD
:10011000130E1000170F0000130F0F136F0080074E
:1001200037030088832303002320730083234300C5
:100130002322730083238300232473008323C300BB
:1001400023267300832303012328730083234301A1
:10015000232A730083238301232C73008323C30189
:10016000232E7300832343028323C3028323430389
:100170008323C3032324730223267302232C7302D5
:10018000232E7302170F0000130F0F0183230302A6
:100190006F00400B130E2000170F0000130FCF0A43
:1001A00073E00039370300886F00800A83238300DF
:1001B0008323830123247300232C730083234302AE
:1001C0008323C30283234303832383038323C30340
:1001D00023267302170F0000130F0F01232E730243
:1001E0006F004006130E3000170F0000130FCF01F1
:1001F00073F00039130300087330033073002030AC
:100200006F004004130E4000170F0000130FCF03C0
:100210006F000004130E5000170F0000130FCF02E1
:100220006F000003130E6000170F0000130FCF01C3
:100230006F000002130E7000170F0000130FCF00A5
:100240006F000001370110F0130141F22320C101BA
:0C025000370110F0130101F2232001001F
:040000058000000077
:00000001FF
