:0200000480007A
:10000000130EF0FF970E0000938E8E3C130F00002E
:10001000970300009383C33B930200001703000083
:10002000130303067310533037B3000073102330EB
:10003000372300001303D3F17310033A3703002072
:100040001303F3FF7310033B370300301303F3FF75
:100050007310133B1703000013038304731013344E
:10006000372300001303038073300330371300007D
:100070001303038073200330730020307323203474
:100080006316E33573901E347300203073232014FD
:10009000631E53327390131473002010130E00006C
:1000A000970E0000938ECE32970300009383433265
:1000B000170300001303C3FD7310531037231A1BDB
:1000C000130383917310039037231E1F1303C3D1AF
:1000D0007310139037A39A9B130383997310239083
:1000E00037A39E9F1303C3D97310339037030022A5
:1000F0001303F37F73100391371300221303F37F6D
:1001000073101391372300221303F37F731023918D
:10011000373300221303F37F7310339137430022E8
:100120001303F37F73104391375300221303F37FBC
:1001300073105391376300221303F37F731063919D
:10014000377300221303F37F7310739137830022F8
:100150001303F37F73108391379300221303F37F0C
:100160007310939137A300221303F37F7310A391AD
:1001700037B300221303F37F7310B39137C3002208
:100180001303F37F7310C39137D300221303F37F5C
:100190007310D39137E300221303F37F7310E391BD
:1001A00037F300221303F37F7310F391970E0000CF
:1001B000938E4E01130F2000730020306F0000213A
:1001C000130E1000970E0000938E8E2097030000F0
:1001D00093830320370300888323030023207300C5
:1001E000374300888323030023207300378300886C
:1001F000832303002320730037C300888323030075
:100200002320730037030188832303002320730016
:100210003743018883230300232073003783018839
:10022000832303002320730037C301888323030043
:1002300023207300970E0000938ECE01130F7000E1
:10024000370300801303C3FF232073006F000018DF
:10025000130E2000970E0000938E8E179703000058
:10026000938383019302F000378302882320730075
:100270006F00C015130E3000970E0000938E4E15C0
:1002800097030000938383019302D00037430288D1
:10029000832303006F008013130E4000970E0000AD
:1002A000938E0E1397030000938383019302C00083
:1002B00037030388670003006F004011130E5000DE
:1002C000970E0000938ECE10970300009383431087
:1002D00017030000130383017310131413030008A2
:1002E0007330031073002010130E6000970E00008F
:1002F000938E0E0E970300009383830D374300887F
:1003000083230300378300882320730037C30088CA
:1003100083230300232073003743018883230300D2
:10032000378301882320730037C3018883230300A8
:100330002320730037430288832303003783028816
:100340002320730037C30288832303002320730014
:1003500037430388832303003783038823207300F4
:1003600037C303888323030023207300970300000F
:10037000938383019302F0003703008823207300E6
:100380006F00C004130E7000970E0000938E4E0491
:1003900097030000938383019302D0003703008802
:1003A000832303006F008002130E8000970E00006D
:1003B000938E0E0297030000938343029302C000C2
:1003C00037030088670003006F004000B70310F098
:1003D000938343F223A0C301B70310F0938303F286
:0403E00023A0030053
:040000058000000077
:00000001FF
