:0200000480007A
:10000000130EF0FF970E0000938E4E3C130F00006E
:10001000970300009383833B9302000017030000C3
:10002000130303067310533037B3000073102330EB
:10003000372300001303D3F17310033A3703002072
:100040001303F3FF7310033B370300301303F3FF75
:100050007310133B1703000013038304731013344E
:10006000372300001303038073300330371300007D
:100070001303038073200330730020307323203474
:100080006314E33573901E347300203073232014FF
:10009000631C53327390131473002010130E00006E
:1000A000970E0000938E8E329703000093830332E5
:1000B000170300001303C3FD7310531037231A1BDB
:1000C000130383917310039037231E1F1303C3D1AF
:1000D0007310139037A39A9B130383997310239083
:1000E00037A39E9F1303C3D9731033903713002295
:1000F0001303F3FF73100391372300221303F3FF5D
:1001000073101391373300221303F3FF73102391FD
:10011000374300221303F3FF731033913753002248
:100120001303F3FF73104391376300221303F3FFAC
:1001300073105391377300221303F3FF731063910D
:10014000378300221303F3FF731073913793002258
:100150001303F3FF7310839137A300221303F3FFFC
:100160007310939137B300221303F3FF7310A3911D
:1001700037C300221303F3FF7310B39137D3002268
:100180001303F3FF7310C39137E300221303F3FF4C
:100190007310D39137F300221303F3FF7310E3912D
:1001A000370301221303F3FF7310F391970E00003E
:1001B000938E4E01130F2000730020306F00C0207B
:1001C000130E1000970E0000938E4E209703000030
:1001D0009383C31F37030088832303002320730006
:1001E000374300888323030023207300378300886C
:1001F000832303002320730037C300888323030075
:100200002320730037030188832303002320730016
:100210003743018883230300232073003783018839
:10022000832303002320730037C301888323030043
:1002300023207300970E0000938ECE01130F7000E1
:10024000370300801303C3FF232073006F00C01720
:10025000130E2000970E0000938E4E179703000098
:10026000938383019302F000378302882320730075
:100270006F008015130E3000970E0000938E0E1540
:1002800097030000938383019302D00037430288D1
:10029000832303006F004013130E4000970E0000ED
:1002A000938ECE1297030000938383019302C000C4
:1002B00037030388670003006F000011130E50001E
:1002C000970E0000938E8E10970300009383031007
:1002D00017030000130383017310131413030008A2
:1002E0007330031073002010130E6000970E00008F
:1002F000938ECE0D970300009383430D3743008800
:1003000083230300378300882320730037C30088CA
:1003100083230300232073003743018883230300D2
:10032000378301882320730037C3018883230300A8
:100330002320730037430288832303003783028816
:100340002320730037C30288832303002320730014
:1003500037430388832303003783038823207300F4
:1003600037C303888323030023207300970300000F
:10037000938343019302F000232873006F00C004AD
:10038000130E7000970E0000938E4E04970300002A
:10039000938383019302D0003703008883230300F3
:1003A0006F008002130E8000970E0000938E0E02E5
:1003B00097030000938343029302C0003703008831
:1003C000670003006F004000B70310F0938343F20F
:1003D00023A0C301B70310F0938303F223A003000B
:040000058000000077
:00000001FF
